:020000040800F2
:1000000000500020DD230008112000081720000800
:100010001D200008232000082920000800000000FF
:100020000000000000000000000000002F20000879
:100030003B20000800000000472000085320000873
:10004000252400082524000825240008252400086C
:10005000252400082524000825240008252400085C
:10006000252400082524000825240008252400084C
:10007000252400082524000825240008252400083C
:10008000252400082524000825240008252400082C
:10009000252400082524000825240008252400081C
:1000A000252400082524000825240008252400080C
:1000B00025240008252400082524000825240008FC
:1000C00025240008252400082524000825240008EC
:1000D00025240008252400082524000825240008DC
:1000E000252400082524000825240008000000001D
:1000F0000000000000000000000000000000000000
:0C01000000000000000000005FF808F1A3
:10010C0010B5054C237833B9044B13B10448AFF345
:10011C0000800123237010BD780000200000000037
:10012C005852000808B5034B1BB103490348AFF301
:10013C00008008BD000000007C0000205852000820
:10014C0081F0004102E000BF83F0004330B54FEA7C
:10015C0041044FEA430594EA050F08BF90EA020FE9
:10016C001FBF54EA000C55EA020C7FEA645C7FEA7C
:10017C00655C00F0E2804FEA5454D4EB5555B8BF9F
:10018C006D420CDD2C4480EA020281EA030382EA10
:10019C00000083EA010180EA020281EA0303362DA2
:1001AC0088BF30BD11F0004F4FEA01314FF4801C75
:1001BC004CEA113102D0404261EB410113F0004F87
:1001CC004FEA03334CEA133302D0524263EB43033E
:1001DC0094EA050F00F0A780A4F10104D5F1200EDC
:1001EC000DDB02FA0EFC22FA05F2801841F1000137
:1001FC0003FA0EF2801843FA05F359410EE0A5F10B
:10020C0020050EF1200E012A03FA0EFC28BF4CF03B
:10021C00020C43FA05F3C01851EBE37101F00045F1
:10022C0007D54FF0000EDCF1000C7EEB00006EEBFE
:10023C000101B1F5801F1BD3B1F5001F0CD3490888
:10024C005FEA30004FEA3C0C04F101044FEA4452DF
:10025C0012F5800F80F09A80BCF1004F08BF5FEA66
:10026C00500C50F1000041EB045141EA050130BD46
:10027C005FEA4C0C404141EB0101013C28BFB1F558
:10028C00801FE9D291F0000F04BF01460020B1FAA3
:10029C0081F308BF2033A3F10B03B3F120020CDA76
:1002AC000C3208DD02F1140CC2F10C0201FA0CF054
:1002BC0021FA02F10CE002F11402D8BFC2F1200CB9
:1002CC0001FA02F120FA0CFCDCBF41EA0C0190406F
:1002DC00E41AA2BF01EB0451294330BD6FEA0404B8
:1002EC001F3C1CDA0C340EDC04F11404C4F12002A3
:1002FC0020FA04F001FA02F340EA030021FA04F3B5
:10030C0045EA030130BDC4F10C04C4F1200220FA0B
:10031C0002F001FA04F340EA0300294630BD21FA49
:10032C0004F0294630BD94F0000F83F4801306BF0F
:10033C0081F480110134013D4EE77FEA645C18BF03
:10034C007FEA655C29D094EA050F08BF90EA020F9A
:10035C0005D054EA000C04BF1946104630BD91EA92
:10036C00030F1EBF0021002030BD5FEA545C05D195
:10037C004000494128BF41F0004130BD14F58004D4
:10038C003CBF01F5801130BD01F0004545F0FE4148
:10039C0041F470014FF0000030BD7FEA645C1ABF7D
:1003AC00194610467FEA655C1CBF0B46024650EAB4
:1003BC00013406BF52EA033591EA030F41F40021E0
:1003CC0030BD00BF90F0000F04BF0021704730B566
:1003DC004FF4806404F132044FF000054FF000013B
:1003EC0050E700BF90F0000F04BF0021704730B5FC
:1003FC004FF4806404F1320410F0004548BF4042D1
:10040C004FF000013EE700BF42004FEAE2014FEA25
:10041C0031014FEA02701FBF12F07F4393F07F4F00
:10042C0081F06051704732F07F4208BF704793F003
:10043C007F4F04BF41F40021704730B54FF4607416
:10044C0001F0004521F000411CE700BF50EA010219
:10045C0008BF704730B54FF000050AE050EA0102C2
:10046C0008BF704730B511F0004502D5404261EB32
:10047C0041014FF4806404F132045FEA915C3FF473
:10048C00D8AE4FF003025FEADC0C18BF03325FEA10
:10049C00DC0C18BF033202EBDC02C2F1200300FAC1
:1004AC0003FC20FA02F001FA03FE40EA0E0021FAE6
:1004BC0002F11444BDE600BF4FEA410212F50012EE
:1004CC0015D211D56FF47873B3EB625212D94FEA8F
:1004DC00C12343F0004343EA505311F0004F23FA79
:1004EC0002F018BF404270474FF00000704750EACE
:1004FC00013005D111F0004008BF6FF0004070478B
:10050C004FF00000704700BF80F0004002E000BFD9
:10051C0081F0004142001FBF5FEA410392EA030FE2
:10052C007FEA226C7FEA236C6AD04FEA1262D2EB2C
:10053C001363C1BFD218414048404140B8BF5B4231
:10054C00192B88BF704710F0004F40F4000020F0CA
:10055C007F4018BF404211F0004F41F4000121F0E0
:10056C007F4118BF494292EA030F3FD0A2F101022A
:10057C0041FA03FC10EB0C00C3F1200301FA03F168
:10058C0000F0004302D5494260EB4000B0F5000F8B
:10059C0013D3B0F1807F06D340084FEA310102F14A
:1005AC000102FE2A51D2B1F1004F40EBC25008BFFC
:1005BC0020F0010040EA03007047490040EB0000C6
:1005CC00013A28BFB0F5000FEDD2B0FA80FCACF1C7
:1005DC00080CB2EB0C0200FA0CF0AABF00EBC250F4
:1005EC0052421843BCBFD0401843704792F0000FE2
:1005FC0081F4000106BF80F400000132013BB5E735
:10060C004FEA41037FEA226C18BF7FEA236C21D0AA
:10061C0092EA030F04D092F0000F08BF084670470F
:10062C0090EA010F1CBF0020704712F07F4F04D1DD
:10063C00400028BF40F00040704712F100723CBFF0
:10064C0000F50000704700F0004343F0FE4040F41A
:10065C00000070477FEA226216BF08467FEA2363D8
:10066C000146420206BF5FEA412390EA010F40F4C3
:10067C00800070474FF0000304E000BF10F000430F
:10068C0048BF40425FEA000C08BF704743F09643F6
:10069C0001464FF000001CE050EA010208BF704711
:1006AC004FF000030AE000BF50EA010208BF704798
:1006BC0011F0004302D5404261EB41015FEA010CAD
:1006CC0002BF84460146002043F0B64308BFA3F1A5
:1006DC008053A3F50003BCFA8CF2083AA3EBC25387
:1006EC0010DB01FA02FC634400FA02FCC2F12002A6
:1006FC00BCF1004F20FA02F243EB020008BF20F0DD
:10070C000100704702F1200201FA02FCC2F1200242
:10071C0050EA4C0021FA02F243EB020008BF20EA37
:10072C00DC7070474FF0FF0C1CEAD0521EBF1CEA65
:10073C00D15392EA0C0F93EA0C0F6FD01A4480EA53
:10074C00010C400218BF5FEA41211ED04FF000633C
:10075C0043EA501043EA5111A0FB01310CF0004068
:10076C00B1F5000F3EBF490041EAD3715B0040EA8E
:10077C00010062F17F02FD2A1DD8B3F1004F40EB5E
:10078C00C25008BF20F00100704790F0000F0CF031
:10079C00004C08BF49024CEA502040EA51207F3AF5
:1007AC00C2BFD2F1FF0340EAC250704740F40000D0
:1007BC004FF00003013A5DDC12F1190FDCBF00F0C1
:1007CC0000407047C2F10002410021FA02F1C2F16F
:1007DC00200200FA02FC5FEA310040F1000053EA0B
:1007EC004C0308BF20EADC70704792F0000F00F059
:1007FC00004C02BF400010F4000F013AF9D040EA5F
:10080C000C0093F0000F01F0004C02BF490011F4F2
:10081C00000F013BF9D041EA0C018FE70CEAD153F0
:10082C0092EA0C0F18BF93EA0C0F0AD030F0004C70
:10083C0018BF31F0004CD8D180EA010000F0004024
:10084C00704790F0000F17BF90F0004F084691F0E2
:10085C00000F91F0004F14D092EA0C0F01D142021C
:10086C000FD193EA0C0F03D14B0218BF084608D1E5
:10087C0080EA010000F0004040F0FE4040F400002F
:10088C00704740F0FE4040F4400070474FF0FF0CC2
:10089C001CEAD0521EBF1CEAD15392EA0C0F93EA09
:1008AC000C0F69D0A2EB030280EA010C49024FEA5B
:1008BC00402037D04FF0805343EA111143EA101314
:1008CC000CF000408B4238BF5B0042F17D024FF4CC
:1008DC00000C8B4224BF5B1A40EA0C00B3EB510FA7
:1008EC0024BFA3EB510340EA5C00B3EB910F24BF90
:1008FC00A3EB910340EA9C00B3EBD10F24BFA3EB15
:10090C00D10340EADC001B0118BF5FEA1C1CE0D1DC
:10091C00FD2A3FF650AF8B4240EBC25008BF20F08F
:10092C00010070470CF0004C4CEA50207F32C2BFE3
:10093C00D2F1FF0340EAC250704740F400004FF080
:10094C000003013A37E792F0000F00F0004C02BFB1
:10095C00400010F4000F013AF9D040EA0C0093F07B
:10096C00000F01F0004C02BF490011F4000F013BD5
:10097C00F9D041EA0C0195E70CEAD15392EA0C0F3D
:10098C0008D142027FF47DAF93EA0C0F7FF470AF75
:10099C00084676E793EA0C0F04D14B023FF44CAFB8
:1009AC0008466EE730F0004C18BF31F0004CCAD14D
:1009BC0030F000427FF45CAF31F000437FF43CAF89
:1009CC005FE700BF70B54FF0FF0C4CF4E06C1CEA15
:1009DC0011541DBF1CEA135594EA0C0F95EA0C0F29
:1009EC0000F0DEF82C4481EA030621EA4C5123EA9C
:1009FC004C5350EA013518BF52EA033541F48011CB
:100A0C0043F4801338D0A0FB02CE4FF00005E1FB7D
:100A1C0002E506F00042E0FB03E54FF00006E1FBC7
:100A2C0003569CF0000F18BF4EF0010EA4F1FF040A
:100A3C00B6F5007F64F5407404D25FEA4E0E6D414A
:100A4C0046EB060642EAC62141EA55514FEAC5205B
:100A5C0040EA5E504FEACE2EB4F1FD0C88BFBCF5D7
:100A6C00E06F1ED8BEF1004F08BF5FEA500E50F188
:100A7C00000041EB045170BD06F0004646EA01014E
:100A8C0040EA020081EA0301B4EB5C04C2BFD4EB80
:100A9C000C0541EA045170BD41F480114FF0000E79
:100AAC00013C00F3AB8014F1360FDEBF002001F0E7
:100ABC00004170BDC4F10004203C35DA0C341BDC61
:100ACC0004F11404C4F1200500FA05F320FA04F033
:100ADC0001FA05F240EA020001F0004221F0004167
:100AEC0010EBD37021FA04F642EB06015EEA430EDA
:100AFC0008BF20EAD37070BDC4F10C04C4F120050A
:100B0C0000FA04F320FA05F001FA04F240EA0200BC
:100B1C0001F0004110EBD37041F100015EEA430E8D
:100B2C0008BF20EAD37070BDC4F1200500FA05F2AD
:100B3C004EEA020E20FA04F301FA05F243EA02032C
:100B4C0021FA04F001F0004121FA04F220EA02003B
:100B5C0000EBD3705EEA430E08BF20EAD37070BD81
:100B6C0094F0000F0FD101F00046400041EB010161
:100B7C0011F4801F08BF013CF7D041EA060195F043
:100B8C00000F18BF704703F00046520043EB0303FD
:100B9C0013F4801F08BF013DF7D043EA06037047EA
:100BAC0094EA0C0F0CEA135518BF95EA0C0F0CD0F5
:100BBC0050EA410618BF52EA4306D1D181EA03013B
:100BCC0001F000414FF0000070BD50EA410606BF35
:100BDC001046194652EA430619D094EA0C0F02D17A
:100BEC0050EA013613D195EA0C0F05D152EA0336BF
:100BFC001CBF104619460AD181EA030101F00041DD
:100C0C0041F0FE4141F470014FF0000070BD41F025
:100C1C00FE4141F4780170BD70B54FF0FF0C4CF4FF
:100C2C00E06C1CEA11541DBF1CEA135594EA0C0F1E
:100C3C0095EA0C0F00F0A7F8A4EB050481EA030E6B
:100C4C0052EA03354FEA013100F088804FEA033352
:100C5C004FF0805545EA131343EA12634FEA022220
:100C6C0045EA111545EA10654FEA00260EF00041E1
:100C7C009D4208BF964244F1FD0404F5407402D233
:100C8C005B084FEA3202B61A65EB03055B084FEAC4
:100C9C0032024FF480104FF4002CB6EB020E75EBC1
:100CAC00030E22BFB61A754640EA0C005B084FEAE9
:100CBC003202B6EB020E75EB030E22BFB61A754666
:100CCC0040EA5C005B084FEA3202B6EB020E75EBB1
:100CDC00030E22BFB61A754640EA9C005B084FEA29
:100CEC003202B6EB020E75EB030E22BFB61A754636
:100CFC0040EADC0055EA060E18D04FEA051545EA25
:100D0C0016754FEA06164FEAC30343EA52734FEACD
:100D1C00C2025FEA1C1CC0D111F4801F0BD141EA46
:100D2C0000014FF000004FF0004CB6E711F4801FAB
:100D3C0004BF01430020B4F1FD0C88BFBCF5E06F8B
:100D4C003FF6AFAEB5EB030C04BFB6EB020C5FEA9B
:100D5C00500C50F1000041EB045170BD0EF0004EF0
:100D6C004EEA113114EB5C04C2BFD4EB0C0541EA22
:100D7C00045170BD41F480114FF0000E013C90E61F
:100D8C0045EA060E8DE60CEA135594EA0C0F08BFE3
:100D9C0095EA0C0F3FF43BAF94EA0C0F0AD150EAE2
:100DAC0001347FF434AF95EA0C0F7FF425AF104675
:100DBC0019462CE795EA0C0F06D152EA03353FF49D
:100DCC00FDAE1046194622E750EA410618BF52EA1A
:100DDC0043067FF4C5AE50EA41047FF40DAF52EAEE
:100DEC0043057FF4EBAE12E74FF0FF3C06E000BF8B
:100DFC004FF0010C02E000BF4FF0010C4DF804CD98
:100E0C004FEA410C7FEA6C5C4FEA430C18BF7FEA57
:100E1C006C5C1BD001B050EA410C0CBF52EA430C85
:100E2C0091EA030F02BF90EA020F0020704710F105
:100E3C00000F91EA030F58BF994208BF90422CBF94
:100E4C00D8176FEAE37040F0010070474FEA410C8D
:100E5C007FEA6C5C02D150EA013C07D14FEA430CAB
:100E6C007FEA6C5CD6D152EA033CD3D05DF8040B1C
:100E7C00704700BF8446104662468C46194663464E
:100E8C0000E000BF01B5FFF7B7FF002848BF10F125
:100E9C00000F01BD4DF808EDFFF7F4FF0CBF01206A
:100EAC0000205DF808FB00BF4DF808EDFFF7EAFFE6
:100EBC0034BF012000205DF808FB00BF4DF808EDA1
:100ECC00FFF7E0FF94BF012000205DF808FB00BF96
:100EDC004DF808EDFFF7CEFF94BF012000205DF820
:100EEC0008FB00BF4DF808EDFFF7C4FF34BF01202D
:100EFC0000205DF808FB00BF4FEA410C7FEA6C5CF8
:100F0C0002D150EA013C0AD14FEA430C7FEA6C5CF7
:100F1C0002D152EA033C02D14FF0000070474FF06F
:100F2C000100704780B582B000AF0346FB71F91D1C
:100F3C004FF4FA730122034802F084F900BF08371A
:100F4C00BD4680BDBC00002080B500AF01224FF42F
:100F5C0080710A4801F0CAFC01224021084801F0C6
:100F6C00C5FC01224FF40071044801F0BFFC0021C4
:100F7C00044802F0FFFB0023184680BD0008014026
:100F8C00000C014018010020F0B58BB004AFF860E4
:100F9C00B9607A603B607B685B427B615AE0386881
:100FAC00FFF720FA04460D467B6903FB03F3184652
:100FBC00FFF764FB06467B6803FB03F31846FFF759
:100FCC005DFB034619463046FFF760FC03461946A5
:100FDC004FF07E50FFF79CFA03461846FFF714FAC1
:100FEC0002460B461046194604F034F802460B46EE
:100FFC0020462946FFF7E6FC02460B4610461946EA
:10100C00FFF75AFA03463B61FB689AB23B699BB205
:10101C00D31A98B2BB689AB27B699BB2134499B24B
:10102C00FB689AB23B699BB213449CB2BB689AB200
:10103C007B699BB213449AB23B6B9BB20025029521
:10104C000125019500931346224600F03FFA7B6977
:10105C0001337B617A697B689A42A0DD00BF00BFD7
:10106C001C37BD46F0BD000080B588B002AF2C48DF
:10107C0003F02AFAFFF768FF2A4803F025FA4FF429
:10108C007A7000F057FE012000F0B8FD002000F04F
:10109C0003FE254803F018FA00230022F021F0206B
:1010AC0000F050F8214803F00FFA214800F096F8B0
:1010BC00204800F0A1F8204803F006FA002000F0C8
:1010CC0059F93C237B611E233B613B69C3F13C0313
:1010DC005B00FB603B693C335B00BB6078237B604F
:1010EC00002000F0D9FD4FF6FF7300933B697A693D
:1010FC007968F868FFF748FF4FF6FF7300933B6978
:10110C007A697968B868FFF73FFF0C4803F0DCF99F
:10111C000B4803F0D9F900BF1837BD4680BD00BF9E
:10112C007052000888520008A8520008B8520008F3
:10113C00A51C0008111D0008D8520008E852000830
:10114C000053000890B583B000AF04460846114622
:10115C001A462346FB800346BB800B467B80134616
:10116C003B801C4AFB8813811A4ABB885381194A5D
:10117C003B889381174AFB885382164ABB8893821B
:10118C00144B5B8A9BB21946124B9B8A9BB21A4634
:10119C00114803F033F90F4A7B88D3810D4B0022A1
:1011AC001A827B88002B02D07B88B42B06D1094A8B
:1011BC00FB889380074ABB88D38006E0054ABB882E
:1011CC009380044AFB88D38000BF00BF0C37BD4618
:1011DC0090BD00BF940000200C53000880B483B075
:1011EC0000AF7860034A7B68136000BF0C37BD46C4
:1011FC0080BC7047B000002080B483B000AF786032
:10120C00034A7B68136000BF0C37BD4680BC704737
:10121C00AC00002080B584B000AF0346FB800B46C9
:10122C00BB8013467B80504B9B889BB2FA889A42BA
:10123C0005D84D4BDB889BB2BA889A4203D94B48F0
:10124C0003F042F98CE0484BDB899BB2B3F5877F06
:10125C002DD0B3F5877F00F38080B42B16D0B42B40
:10126C007BDC002B02D05A2B05D076E0FB88FB816F
:10127C00BB88BB8126E03C4B1B899AB2BB88D31A36
:10128C009BB2013BFB81FB88BB811BE0364B1B896E
:10129C009AB2FB88D31A9BB2013BFB81324B5B8920
:1012AC009AB2BB88D31A9BB2013BBB810AE0BB88C4
:1012BC00FB812D4B5B899AB2FB88D31A9BB2013B05
:1012CC00BB8100BF284B1B8A9BB2032B47D801A2C2
:1012DC0052F823F037130008F1120008031300082A
:1012EC0015130008204B1B899AB2FB89D31A9BB2A9
:1012FC00013BFB811AE01C4B5B899AB2BB89D31A68
:10130C009BB2013BBB8111E0174B1B899AB2FB8945
:10131C00D31A9BB2013BFB81134B5B899AB2BB89FD
:10132C00D31A9BB2013BBB8100E000BF0E4B1B8963
:10133C009BB2FA899A4205D80B4B5B899BB2BA894E
:10134C009A4203D9094803F0BFF809E0084B1B681F
:10135C007A88B989F889984702E000BF00E000BF9D
:10136C001037BD4680BD00BF940000200C5400080F
:10137C00AC00002080B582B000AF0346FB80044B6C
:10138C001B68FA881046984700BF0837BD4680BDD9
:10139C00B000002090B585B000AF04460846114659
:1013AC001A462346FB800346BB800B467B801346C4
:1013BC007B70444B9B889BB2FA889A4205D8414B70
:1013CC00DB889BB2BA889A4203D93F4803F07CF879
:1013DC0074E097F82030012B44D10023FB8139E0D5
:1013EC000023BB8129E0FA88B7F90E301A447B78C8
:1013FC00D31A002B28DBBA88B7F90C301A447B7847
:10140C00D31A002B20DBFA89FB8813449AB27B7821
:10141C009BB2D31A98B2BA89BB8813449AB27B7820
:10142C009BB2D31A9BB27A881946FFF7F3FEB7F931
:10143C000C309BB201339BB2BB81B7F90C207B788B
:10144C005B00013B9A42CEDBB7F90E309BB2013305
:10145C009BB2FB81B7F90E207B785B00013B9A4273
:10146C00BEDB2BE00023FB8123E00023BB8115E0D6
:10147C00FA89FB8813449BB2013B98B2BA89BB88AA
:10148C0013449BB2013B9BB27A881946FFF7C2FE0C
:10149C00B7F90C309BB201339BB2BB81B7F90C206E
:1014AC007B789A42E4DBB7F90E309BB201339BB2E6
:1014BC00FB81B7F90E207B789A42D6DB1437BD46F8
:1014CC0090BD00BF940000203454000890B58DB03E
:1014DC0002AF0446084611461A462346FB800346D3
:1014EC00BB800B467B8013463B804D4B9B889BB24D
:1014FC00FA889A4211D84A4BDB889BB2BA889A4236
:10150C000BD8474B9B889BB27A889A4205D8444BA0
:10151C00DB889BB23A889A4203D9424802F0D4FF46
:10152C007BE0FB88FB84BB88BB847A88FB88D31A5E
:10153C00002BB8BF5B42BB613A88BB88D31A002B27
:10154C00B8BF5B425B427B61FA887B889A4201D2CE
:10155C00012301E04FF0FF333B61BA883B889A428C
:10156C0001D2012301E04FF0FF33FB60BA697B69C4
:10157C0013443B620023FB77FB7F0133FB7797F827
:10158C004030012B18D1FA7F274BA3FB02135908CB
:10159C000B465B000B44D31ADBB2002B0CD197F833
:1015AC003C30B98CF88C012200924FF6FF72FFF799
:1015BC00F1FE0023FB7708E097F83C303A8FB98CAA
:1015CC00F88C01240094FFF7E5FE3B6A5B007A6916
:1015DC009A420CDCFA8C7B889A421BD03A6A7B6963
:1015EC0013443B623B699AB2FB8C1344FB843B6A09
:1015FC005B00BA699A42BFDBBA8C3B889A420BD02B
:10160C003A6ABB6913443B62FB689AB2BB8C1344C5
:10161C00BB84B1E700BF00E000BF2C37BD4690BDD6
:10162C009400002074540008ABAAAAAA80B500AF9D
:10163C0001224FF400710D4801F058F9642002F0BA
:10164C004BFD00224FF40071084801F04FF9642063
:10165C0002F042FD01224FF40071044801F046F9FA
:10166C00642002F039FD00BF80BD00BF00080140BE
:10167C0080B582B000AF0346FB7100224FF480713D
:10168C00074801F033F900224021064801F02EF9F9
:10169C00FB791846FFF746FC00BF0837BD4680BDF6
:1016AC0000080140000C014080B582B000AF034639
:1016BC00FB7101224FF480710A4801F017F90022E6
:1016CC004021094801F012F9FB791846FFF72AFC72
:1016DC0001224021044801F009F900BF0837BD463A
:1016EC0080BD00BF00080140000C014080B582B0F5
:1016FC0000AF0346FB8001224FF480710E4801F0CD
:10170C00F5F8002240210D4801F0F0F8FB881B0A87
:10171C009BB2DBB21846FFF705FCFB88DBB2184620
:10172C00FFF700FC01224021044801F0DFF800BF64
:10173C000837BD4680BD00BF00080140000C0140C9
:10174C0080B500AFEF20FFF793FFEB20FFF790FF82
:10175C001420FFF7A9FFFE20FFF78AFFEF20FFF709
:10176C0087FFEB20FFF784FF1420FFF79DFF8420F9
:10177C00FFF77EFF4020FFF797FF8520FFF778FFEC
:10178C00FF20FFF791FF8620FFF772FFFF20FFF786
:10179C008BFF8720FFF76CFFFF20FFF785FF88206A
:1017AC00FFF766FF0A20FFF77FFF8920FFF760FF36
:1017BC002120FFF779FF8A20FFF75AFF0020FFF75F
:1017CC0073FF8B20FFF754FF8020FFF76DFF8C20F9
:1017DC00FFF74EFF0120FFF767FF8D20FFF748FF53
:1017EC000120FFF761FF8E20FFF742FFFF20FFF77C
:1017FC005BFF8F20FFF73CFFFF20FFF755FFB62064
:10180C00FFF736FF0020FFF74FFF2020FFF74CFFBC
:10181C003620FFF72DFF0820FFF746FF3A20FFF791
:10182C0027FF0520FFF740FF9020FFF721FF08203E
:10183C00FFF73AFF0820FFF737FF0820FFF734FFC8
:10184C000820FFF731FFBD20FFF712FF0620FFF73E
:10185C002BFFBC20FFF70CFF0020FFF725FFFF201C
:10186C00FFF706FF6020FFF71FFF0120FFF71CFFAB
:10187C000420FFF719FFC320FFF7FAFE1320FFF730
:10188C0013FFC420FFF7F4FE1320FFF70DFFC92050
:10189C00FFF7EEFE2220FFF707FFBE20FFF7E8FE62
:1018AC001120FFF701FFE120FFF7E2FE1020FFF708
:1018BC00FBFE0E20FFF7F8FEDF20FFF7D9FE2120FC
:1018CC00FFF7F2FE0C20FFF7EFFE0220FFF7ECFE15
:1018DC00F020FFF7CDFE4520FFF7E6FE0920FFF7CD
:1018EC00E3FE0820FFF7E0FE0820FFF7DDFE2620D0
:1018FC00FFF7DAFE2A20FFF7D7FEF120FFF7B8FE3C
:10190C004320FFF7D1FE7020FFF7CEFE7220FFF7C9
:10191C00CBFE3620FFF7C8FE3720FFF7C5FE6F2041
:10192C00FFF7C2FEF220FFF7A3FE4520FFF7BCFE37
:10193C000920FFF7B9FE0820FFF7B6FE0820FFF7D5
:10194C00B3FE2620FFF7B0FE2A20FFF7ADFEF320F2
:10195C00FFF78EFE4320FFF7A7FE7020FFF7A4FED3
:10196C007220FFF7A1FE3620FFF79EFE3720FFF70F
:10197C009BFE6F20FFF798FEED20FFF779FE1B20F2
:10198C00FFF792FE0B20FFF78FFEAE20FFF770FEE5
:10199C007720FFF789FECD20FFF76AFE6320FFF763
:1019AC0083FE7020FFF764FE0720FFF77DFE072003
:1019BC00FFF77AFE0420FFF777FE0E20FFF774FE88
:1019CC000F20FFF771FE0920FFF76EFE0720FFF7CF
:1019DC006BFE0820FFF768FE0320FFF765FEE8208A
:1019EC00FFF746FE3420FFF75FFE6220FFF740FE54
:1019FC001820FFF759FE0D20FFF756FE7120FFF758
:101A0C0053FEED20FFF750FE7020FFF74DFE7020C7
:101A1C00FFF74AFE1820FFF747FE0F20FFF744FEA2
:101A2C007120FFF741FEEF20FFF73EFE7020FFF71D
:101A3C003BFE7020FFF738FE6320FFF719FE1820DD
:101A4C00FFF732FE1120FFF72FFE7120FFF72CFE5F
:101A5C00F120FFF729FE7020FFF726FE7020FFF71C
:101A6C0023FE1820FFF720FE1320FFF71DFE712028
:101A7C00FFF71AFEF320FFF717FE7020FFF714FE96
:101A8C007020FFF711FE6420FFF7F2FD2820FFF70E
:101A9C000BFE2920FFF708FEF120FFF705FE0120C1
:101AAC00FFF702FEF120FFF7FFFD0020FFF7FCFD22
:101ABC000720FFF7F9FD6620FFF7DAFD3C20FFF762
:101ACC00F3FD0020FFF7F0FDCD20FFF7EDFD6720C3
:101ADC00FFF7EAFD4520FFF7E7FD4520FFF7E4FDA2
:101AEC001020FFF7E1FD0020FFF7DEFD0020FFF7DF
:101AFC00DBFD0020FFF7D8FD6720FFF7B9FD0020C4
:101B0C00FFF7D2FD3C20FFF7CFFD0020FFF7CCFD07
:101B1C000020FFF7C9FD0020FFF7C6FD0120FFF7ED
:101B2C00C3FD5420FFF7C0FD1020FFF7BDFD322090
:101B3C00FFF7BAFD9820FFF7B7FD7420FFF798FD6B
:101B4C001020FFF7B1FD8520FFF7AEFD8020FFF7D9
:101B5C00ABFD0020FFF7A8FD0020FFF7A5FD4E20F0
:101B6C00FFF7A2FD0020FFF79FFD9820FFF780FDF7
:101B7C003E20FFF799FD0720FFF796FD3520FFF774
:101B8C0077FD2120FFF774FD1120FFF771FD782000
:101B9C0002F0A2FA2920FFF76BFD142002F09CFA48
:101BAC0000BF80BD80B584B000AF0346FB71124A04
:101BBC00FB7913710823FB73FB79002B08D10E4BB7
:101BCC00F0225A800C4BF0221A80C823FB7307E0DA
:101BDC00094BF0225A80084BF0221A806823FB73C1
:101BEC003620FFF745FDFB7B1846FFF75DFD00BF78
:101BFC001037BD4680BD00BFB400002080B582B058
:101C0C0000AF0346FB71FFF711FDFB791846FFF798
:101C1C00C9FFFFF795FD00BF0837BD4680BD90B5E5
:101C2C0083B000AF0446084611461A462346FB8093
:101C3C000346BB800B467B8013463B802A20FFF774
:101C4C0017FD0020FFF730FDFB88DBB21846FFF7CD
:101C5C002BFD0020FFF728FD7B88DBB21846FFF731
:101C6C0023FD2B20FFF704FD0020FFF71DFDBB8893
:101C7C00DBB21846FFF718FD0020FFF715FD3B8877
:101C8C00DBB21846FFF710FD2C20FFF7F1FC00BF6C
:101C9C000C37BD4690BD000080B584B000AF034644
:101CAC00FB80EF23EF2200210020FFF7B8FF012279
:101CBC004FF48071124800F019FE0023FB8117E0ED
:101CCC000023BB810EE0FB881B0A9BB2DBB21846DB
:101CDC00FFF728F9FB88DBB21846FFF723F9BB891D
:101CEC000133BB81BB89EF2BEDD9FB890133FB8120
:101CFC00FB89EF2BE4D900BF00BF1037BD4680BD78
:101D0C000008014080B582B000AF0346FB800B4653
:101D1C00BB8013467B80BB88FA88B988F888FFF7AC
:101D2C007EFF7B881846FFF7E1FC00BF0837BD46F5
:101D3C0080BD000080B483B000AF0346FB80044A32
:101D4C00FB88936300BF0C37BD4680BC704700BF57
:101D5C00002C014080B586B000AF07F108030022CB
:101D6C001A605A609A60DA60214B9B69204A43F0F2
:101D7C00040393611E4B9B6903F004037B607B6837
:101D8C001B4B9B691A4A43F008039361184B9B69E0
:101D9C0003F008033B603B6800224FF44071154888
:101DAC0000F0A4FD00224021134800F09FFD4FF4E9
:101DBC004073BB600123FB6000233B6102237B610A
:101DCC0007F1080319460B4800F00CFC4023BB60DC
:101DDC000123FB6000233B6102237B6107F10803B5
:101DEC001946054800F0FEFB00BF1837BD4680BD04
:101DFC000010024000080140000C014080B500AF0B
:101E0C0002F008F900F00BF8FFF7A4FF00F06CFAF1
:101E1C0000F0C4F900F044F8FFF726F9FEE780B5AE
:101E2C0090B000AF07F1180328220021184602F0E9
:101E3C002BFC3B1D00221A605A609A60DA601A6112
:101E4C000223BB610123BB621023FB6200237B6373
:101E5C0007F11803184600F061FD0346002B01D072
:101E6C0000F018F80F237B600023BB600023FB609D
:101E7C0000233B6100237B613B1D0021184600F0D1
:101E8C00CFFF0346002B01D000F004F800BF403711
:101E9C00BD4680BD80B400AF72B600BFFEE7000047
:101EAC0080B500AF174B184A1A60164B4FF482726C
:101EBC005A60144B00229A60124B0022DA60114BCC
:101ECC0000221A610F4B00225A610E4B4FF4007224
:101EDC009A610C4B0022DA610A4B00221A62094B00
:101EEC0000225A62074B00229A62064B0A22DA62DF
:101EFC00044801F023F90346002B01D0FFF7CAFF79
:101F0C0000BF80BDBC0000200030014080B588B00F
:101F1C0000AF786007F1100300221A605A609A60D3
:101F2C00DA607B681B681B4A93422FD11A4B9B6962
:101F3C00194A43F480539361174B9B6903F4805304
:101F4C00FB60FB68144B9B69134A43F004039361D9
:101F5C00114B9B6903F00403BB60BB68A0233B617E
:101F6C0002237B610323FB6107F1100319460B4825
:101F7C0000F038FB40233B6100237B610023BB61F5
:101F8C0007F110031946054800F02CFB00BF203761
:101F9C00BD4680BD003001400010024000080140E9
:101FAC0080B485B000AF154B9B69144A43F0010314
:101FBC009361124B9B6903F00103BB60BB680F4B31
:101FCC00DB690E4A43F08053D3610C4BDB6903F0A1
:101FDC0080537B607B680A4B5B68FB60FB6823F07B
:101FEC00E063FB60FB6843F00073FB60044AFB6832
:101FFC00536000BF1437BD4680BC704700100240D0
:10200C000000014080B400AFFEE780B400AFFEE7F3
:10201C0080B400AFFEE780B400AFFEE780B400AF41
:10202C00FEE780B400AF00BFBD4680BC704780B4F3
:10203C0000AF00BFBD4680BC704780B400AF00BF8E
:10204C00BD4680BC704780B500AF02F029F800BFD8
:10205C0080BD80B586B000AFF860B9607A600023AF
:10206C007B610AE0AFF300800146BB685A1CBA6082
:10207C00CAB21A707B6901337B617A697B689A42B8
:10208C00F0DB7B6818461837BD4680BD80B586B03E
:10209C0000AFF860B9607A6000237B6109E0BB682F
:1020AC005A1CBA601B781846AFF300807B69013369
:1020BC007B617A697B689A42F1DB7B68184618373A
:1020CC00BD4680BD80B483B000AF78604FF0FF3365
:1020DC0018460C37BD4680BC704780B483B000AF47
:1020EC00786039603B684FF400525A600023184600
:1020FC000C37BD4680BC704780B483B000AF7860AD
:10210C00012318460C37BD4680BC704780B485B09F
:10211C0000AFF860B9607A60002318461437BD46EA
:10212C0080BC704780B586B000AF7860144A154B00
:10213C00D31A7B617B693B61134B1B68002B02D16B
:10214C00114B124A1A60104B1A687B6813443A6997
:10215C009A4207D202F0F6FA03460C221A604FF0AC
:10216C00FF3309E0084B1B68FB60074B1A687B6860
:10217C001344054A1360FB6818461837BD4680BDEA
:10218C00005000200004000014010020F802002080
:10219C0080B400AF00BFBD4680BC704780B58AB02C
:1021AC0000AF07F1200300221A605A603B1D002289
:1021BC001A605A609A60DA601A615A619A61234B0C
:1021CC004FF080421A60214B47225A601F4B00226D
:1021DC009A601E4B4FF6FF72DA601C4B00221A619C
:1021EC001A4B00229A61194801F074FA0346002B2D
:1021FC0001D0FFF74FFE00233B6200237B6207F107
:10220C0020031946114801F007FA0346002B01D0B0
:10221C00FFF740FE60237B604FF4FA73BB60002332
:10222C00FB6000237B613B1D00221946074801F02F
:10223C0043FB0346002B01D0FFF72CFE034800F0B4
:10224C0023F800BF2837BD4680BD00BF1801002011
:10225C0080B485B000AF78607B681B68B3F1804FA9
:10226C000BD1084BDB69074A43F00103D361054BE3
:10227C00DB6903F00103FB60FB6800BF1437BD464C
:10228C0080BC70470010024080B588B000AF786009
:10229C0007F1100300221A605A609A60DA607B68BA
:1022AC001B68B3F1804F17D10D4B9B690C4A43F05F
:1022BC00040393610A4B9B6903F00403FB60FB6806
:1022CC0001233B6102237B610223FB6107F11003B5
:1022DC001946044800F086F900BF2037BD4680BD82
:1022EC00001002400008014080B500AF114B124AAB
:1022FC001A60104B4FF4E1325A600E4B00229A6078
:10230C000C4B0022DA600B4B00221A61094B0C2299
:10231C005A61084B00229A61064B0022DA6105488B
:10232C0001F09AFD0346002B01D0FFF7B3FD00BF6F
:10233C0080BD00BF600100200044004080B588B023
:10234C0000AF786007F1100300221A605A609A609F
:10235C00DA607B681B681B4A93422FD11A4BDB69EE
:10236C00194A43F40033D361174BDB6903F4003390
:10237C00FB60FB68144B9B69134A43F004039361A5
:10238C00114B9B6903F00403BB60BB6804233B61E6
:10239C0002237B610323FB6107F1100319460B48F1
:1023AC0000F020F908233B6100237B610023BB6113
:1023BC0007F110031946054800F014F900BF203747
:1023CC00BD4680BD004400400010024000080140A2
:1023DC00FFF7DEFE0B480C490C4A002302E0D458F0
:1023EC00C4500433C4188C42F9D3094A094C002355
:1023FC0001E013600432A242FBD302F0A9F9FFF70B
:10240C00FDFC704700000020780000206856000892
:10241C0078000020F8020020FEE7000080B485B0B0
:10242C0000AF78607B6803F00703FB600C4BDB6844
:10243C00BB60BA684FF6FF031340BB60FB681A021F
:10244C00BB68134343F0BF6343F40033BB60044ADF
:10245C00BB68D36000BF1437BD4680BC704700BF5B
:10246C0000ED00E080B400AF044BDB681B0A03F006
:10247C0007031846BD4680BC704700BF00ED00E066
:10248C0080B483B000AF03463960FB7197F9073015
:10249C00002B0ADB3B68DAB20C4997F907301201C2
:1024AC00D2B20B4483F800230AE03B68DAB2084945
:1024BC00FB7903F00F03043B1201D2B20B441A76E2
:1024CC0000BF0C37BD4680BC704700BF00E100E088
:1024DC0000ED00E080B489B000AFF860B9607A60BC
:1024EC00FB6803F00703FB61FB69C3F10703042BD3
:1024FC0028BF0423BB61FB690433062B02D9FB699B
:10250C00033B00E000237B614FF0FF32BB6902FA12
:10251C0003F3DA43BB681A407B699A404FF0FF31F2
:10252C007B6901FA03F3D9437B680B4013431846CC
:10253C002437BD4680BC704780B582B000AF786050
:10254C007B68013BB3F1807F01D301230FE00A4A82
:10255C007B68013B53600F214FF0FF30FFF790FF7A
:10256C00054B00229A60044B07221A600023184680
:10257C000837BD4680BD00BF10E000E080B582B0DA
:10258C0000AF78607868FFF749FF00BF0837BD4699
:10259C0080BD80B586B000AF0346B9607A60FB732E
:1025AC0000237B61FFF75EFF78617A68B968786910
:1025BC00FFF790FF024697F90F3011461846FFF7C8
:1025CC005FFF00BF1837BD4680BD80B582B000AF3D
:1025DC0078607868FFF7B0FF034618460837BD46A9
:1025EC0080BD000080B48BB000AF786039600023F0
:1025FC007B6200233B6269E101227B6A02FA03F3EE
:10260C00FB613B681B68FA691340BB61BA69FB69E3
:10261C009A4240F058813B685B689A4A93425ED07C
:10262C00984A934275D8984A934258D0964A934206
:10263C006FD8964A934252D0944A934269D8944A9E
:10264C0093424CD0924A934263D8924A934246D0DA
:10265C00904A93425DD8122B2AD8122B59D801A23A
:10266C0052F823F0EB260008C5260008D7260008F0
:10267C00192700081F2700081F2700081F2700081C
:10268C001F2700081F2700081F2700081F27000806
:10269C001F2700081F2700081F2700081F270008F6
:1026AC001F2700081F270008CD260008E126000878
:1026BC00794A934213D02CE03B68DB683B6229E0FB
:1026CC003B68DB6804333B6224E03B68DB6808331F
:1026DC003B621FE03B68DB680C333B621AE03B68F3
:1026EC009B68002B02D104233B6213E03B689B6880
:1026FC00012B05D108233B627B68FA691A6109E05A
:10270C0008233B627B68FA695A6103E000233B6251
:10271C0000E000BFBB69FF2B01D87B6801E07B6840
:10272C0004337B61BB69FF2B02D87B6A9B0002E000
:10273C007B6A083B9B003B617B691A680F213B69F4
:10274C0001FA03F3DB431A40396A3B6901FA03F3DC
:10275C001A437B691A603B685B6803F08053002B5B
:10276C0000F0B1804D4B9B694C4A43F001039361DF
:10277C004A4B9B6903F00103BB60BB68484A7B6A08
:10278C009B08023352F82330FB607B6A03F003038F
:10279C009B000F2202FA03F3DB43FA681340FB6041
:1027AC007B68404A934213D07B683F4A93420DD0DA
:1027BC007B683E4A934207D07B683D4A934201D1E5
:1027CC00032306E0042304E0022302E0012300E0DB
:1027DC0000237A6A02F0030292009340FA681343D2
:1027EC00FB602F497B6A9B080233FA6841F823206F
:1027FC003B685B6803F48013002B06D02D4B9A6862
:10280C002C49BB6913438B6006E02A4B9A68BB6961
:10281C00DB43284913408B603B685B6803F400136F
:10282C00002B06D0234BDA682249BB691343CB60DB
:10283C0006E0204BDA68BB69DB431E491340CB60D2
:10284C003B685B6803F40033002B06D0194B5A68C5
:10285C001849BB6913434B6006E0164B5A68BB69B9
:10286C00DB43144913404B603B685B6803F48033D3
:10287C00002B21D00F4B1A680E49BB6913430B6018
:10288C0021E000BF000032100000311000002210C7
:10289C000000211000001210000011100010024066
:1028AC000000014000080140000C014000100140F4
:1028BC0000140140000401400B4B1A68BB69DB4358
:1028CC00094913400B607B6A01337B623B681A68D1
:1028DC007B6A22FA03F3002B7FF48EAE00BF00BF9D
:1028EC002C37BD4680BC70470004014080B483B0D7
:1028FC0000AF78600B467B8013467B707B78002B97
:10290C0003D07A887B681A6103E07B881A047B68A1
:10291C001A6100BF0C37BD4680BC704780B586B0CD
:10292C0000AF78607B68002B01D1012372E27B68D9
:10293C001B6803F00103002B00F08780924B5B684F
:10294C0003F00C03042B0CD08F4B5B6803F00C03CF
:10295C00082B12D18C4B5B6803F48033B3F5803FAA
:10296C000BD1894B1B6803F40033002B6CD07B68B4
:10297C005B68002B68D101234CE27B685B68B3F584
:10298C00803F06D1804B1B687F4A43F48033136031
:10299C002EE07B685B68002B0CD17B4B1B687A4A62
:1029AC0023F480331360784B1B68774A23F480231D
:1029BC0013601DE07B685B68B3F5A02F0CD1724BE4
:1029CC001B68714A43F4802313606F4B1B686E4A7B
:1029DC0043F4803313600BE06B4B1B686A4A23F49F
:1029EC0080331360684B1B68674A23F480231360A1
:1029FC007B685B68002B13D001F064FB386108E046
:102A0C0001F060FB02463B69D31A642B01D9032306
:102A1C0000E25D4B1B6803F40033002BF0D014E094
:102A2C0001F050FB386108E001F04CFB02463B69B9
:102A3C00D31A642B01D90323ECE1534B1B6803F429
:102A4C000033002BF0D100E000BF7B681B6803F063
:102A5C000203002B63D04C4B5B6803F00C03002B80
:102A6C000BD0494B5B6803F00C03082B1CD1464B75
:102A7C005B6803F48033002B16D1434B1B6803F0C7
:102A8C000203002B05D07B681B69012B01D00123AD
:102A9C00C0E13D4B1B6823F0F8027B685B69DB00EF
:102AAC00394913430B603AE07B681B69002B20D03B
:102ABC00364B01221A6001F005FB386108E001F089
:102ACC0001FB02463B69D31A022B01D90323A1E176
:102ADC002D4B1B6803F00203002BF0D02A4B1B6814
:102AEC0023F0F8027B685B69DB00274913430B601A
:102AFC0015E0264B00221A6001F0E4FA386108E078
:102B0C0001F0E0FA02463B69D31A022B01D90323E8
:102B1C0080E11D4B1B6803F00203002BF0D17B6896
:102B2C001B6803F00803002B3AD07B689B69002BD1
:102B3C0019D0174B01221A6001F0C4FA386108E071
:102B4C0001F0C0FA02463B69D31A022B01D90323C8
:102B5C0060E10D4B5B6A03F00203002BF0D0012007
:102B6C0000F0CEFA1CE00A4B00221A6001F0AAFA1F
:102B7C0038610FE001F0A6FA02463B69D31A022B2A
:102B8C0008D9032346E100BF001002400000424276
:102B9C0080044242924B5B6A03F00203002BE9D1A2
:102BAC007B681B6803F00403002B00F0A680002355
:102BBC00FB758B4BDB6903F08053002B0DD1884BDD
:102BCC00DB69874A43F08053D361854BDB6903F0A3
:102BDC008053BB60BB680123FB75824B1B6803F4FD
:102BEC008073002B18D17F4B1B687E4A43F4807393
:102BFC00136001F067FA386108E001F063FA0246ED
:102C0C003B69D31A642B01D9032303E1754B1B6871
:102C1C0003F48073002BF0D07B68DB68012B06D1AA
:102C2C006F4B1B6A6E4A43F0010313622DE07B6805
:102C3C00DB68002B0CD16A4B1B6A694A23F0010339
:102C4C001362674B1B6A664A23F0040313621CE091
:102C5C007B68DB68052B0CD1614B1B6A604A43F027
:102C6C00040313625E4B1B6A5D4A43F0010313625B
:102C7C000BE05B4B1B6A5A4A23F001031362584B5F
:102C8C001B6A574A23F0040313627B68DB68002B32
:102C9C0015D001F017FA38610AE001F013FA024678
:102CAC003B69D31A41F28832934201D90323B1E034
:102CBC004B4B1B6A03F00203002BEED014E001F027
:102CCC0001FA38610AE001F0FDF902463B69D31ABA
:102CDC0041F28832934201D903239BE0404B1B6A9B
:102CEC0003F00203002BEED1FB7D012B05D13C4BF5
:102CFC00DB693B4A23F08053D3617B68DB69002B93
:102D0C0000F08780364B5B6803F00C03082B61D016
:102D1C007B68DB69022B46D1334B00221A6001F031
:102D2C00D1F9386108E001F0CDF902463B69D31ABC
:102D3C00022B01D903236DE0294B1B6803F00073B0
:102D4C00002BF0D17B681B6AB3F5803F08D1244B74
:102D5C005B6823F400327B689B68214913434B600A
:102D6C001F4B5B6823F474127B68196A7B685B6A7F
:102D7C000B431B4913434B601B4B01221A6001F0A0
:102D8C00A1F9386108E001F09DF902463B69D31ABC
:102D9C00022B01D903233DE0114B1B6803F0007398
:102DAC00002BF0D035E0104B00221A6001F08AF9AC
:102DBC00386108E001F086F902463B69D31A022B10
:102DCC0001D9032326E0064B1B6803F00073002B8C
:102DDC00F0D11EE07B68DB69012B07D1012319E0E0
:102DEC000010024000700040600042420B4B5B68D8
:102DFC00FB60FB6803F480327B681B6A9A4206D145
:102E0C00FB6803F470127B685B6A9A4201D0012361
:102E1C0000E0002318461837BD4680BD0010024064
:102E2C0080B584B000AF786039607B68002B01D12D
:102E3C000123D0E06A4B1B6803F007033A689A42FF
:102E4C0010D9674B1B6823F0070265493B68134395
:102E5C000B60634B1B6803F007033A689A4201D07E
:102E6C000123B8E07B681B6803F00203002B20D021
:102E7C007B681B6803F00403002B05D0594B5B687F
:102E8C00584A43F4E06353607B681B6803F0080303
:102E9C00002B05D0534B5B68524A43F4605353608C
:102EAC00504B5B6823F0F0027B689B684D491343E1
:102EBC004B607B681B6803F00103002B40D07B68E0
:102ECC005B68012B07D1474B1B6803F40033002BC5
:102EDC0015D101237FE07B685B68022B07D1414B46
:102EEC001B6803F00073002B09D1012373E03D4BE9
:102EFC001B6803F00203002B01D101236BE0394B5B
:102F0C005B6823F003027B685B68364913434B60B4
:102F1C0001F0D8F8F8600AE001F0D4F80246FB683A
:102F2C00D31A41F28832934201D9032353E02D4B3B
:102F3C005B6803F00C027B685B689B009A42EBD1E8
:102F4C00274B1B6803F007033A689A4210D2244BB4
:102F5C001B6823F0070222493B6813430B60204B8C
:102F6C001B6803F007033A689A4201D0012332E050
:102F7C007B681B6803F00403002B08D0194B5B68BB
:102F8C0023F4E0627B68DB68164913434B607B6873
:102F9C001B6803F00803002B09D0124B5B6823F469
:102FAC0060527B681B69DB000E4913434B6000F0D9
:102FBC0021F802460B4B5B681B0903F00F030A490F
:102FCC00CB5C22FA03F3094A1360094B1B681846C1
:102FDC0001F036F8002318461037BD4680BD00BFFF
:102FEC0000200240001002400056000800000020A3
:102FFC000400002080B487B000AF0023FB600023E6
:10300C00BB6000237B6100237B6000233B611E4B74
:10301C005B68FB60FB6803F00C03042B02D0082BED
:10302C0003D027E0194B3B6127E0FB689B0C03F0B6
:10303C000F03174AD35C7B60FB6803F48033002BCF
:10304C0010D0114B5B685B0C03F00103114AD35C8D
:10305C00BB607B680D4A03FB02F2BB68B2FBF3F367
:10306C007B6104E07B680C4A02FB03F37B617B69A8
:10307C003B6102E0054B3B6100BF3B6918461C37C6
:10308C00BD4680BC704700BF0010024000127A00A1
:10309C00185600082856000800093D0080B400AFFF
:1030AC00024B1B681846BD4680BC704700000020D0
:1030BC0080B500AFFFF7F2FF0246054B5B681B0AB9
:1030CC0003F007030349CB5C22FA03F3184680BDD7
:1030DC00001002401056000880B500AFFFF7DEFF6D
:1030EC000246054B5B68DB0A03F007030349CB5C24
:1030FC0022FA03F3184680BD001002401056000857
:10310C0080B485B000AF78600A4B1B680A4AA2FBFA
:10311C0003235B0A7A6802FB03F3FB6000BFFB68C6
:10312C005A1EFA60002BF9D100BF00BF1437BD4600
:10313C0080BC704700000020D34D621080B582B077
:10314C0000AF78607B68002B01D1012376E07B68AF
:10315C005B6A002B08D17B685B68B3F5827F09D072
:10316C007B680022DA6105E07B6800221A617B68CB
:10317C0000225A617B6800229A627B6893F8513076
:10318C00DBB2002B06D17B68002283F850207868D4
:10319C00FEF7BCFE7B68022283F851207B681B681B
:1031AC001A687B681B6822F040021A607B685B68B7
:1031BC0003F482727B689B6803F404431A437B68B4
:1031CC00DB6803F400631A437B681B6903F002039A
:1031DC001A437B685B6903F001031A437B689B69A4
:1031EC0003F400731A437B68DB6903F038031A435A
:1031FC007B681B6A03F0800342EA03017B689B6ACD
:10320C0003F400527B681B680A431A607B689B6955
:10321C001A0C7B681B6802F004025A607B681B68FE
:10322C00DA697B681B6822F40062DA617B68002231
:10323C005A657B68012283F8512000231846083711
:10324C00BD4680BD80B588B000AFF860B9603B600A
:10325C001346FB800023FB77FB6893F85030012B5F
:10326C0001D102232DE1FB68012283F8502000F0EC
:10327C0029FFB861FB88FB82FB6893F85130DBB205
:10328C00012B02D00223FB7716E1BB68002B02D086
:10329C00FB88002B02D10123FB770DE1FB68032295
:1032AC0083F85120FB6800225A65FB68BA681A63E0
:1032BC00FB68FA889A86FB68FA88DA86FB68002233
:1032CC009A63FB6800229A87FB680022DA87FB6806
:1032DC0000225A64FB6800221A64FB689B68B3F5F1
:1032EC00004F0FD1FB681B681A68FB681B6822F043
:1032FC0040021A60FB681B681A68FB681B6842F482
:10330C0080421A60FB681B681B6803F04003402B6B
:10331C0007D0FB681B681A68FB681B6842F0400208
:10332C001A60FB68DB68B3F5006F4FD1FB685B6814
:10333C00002B02D0FB8A012B42D1FB681B6B1A8835
:10334C00FB681B68DA60FB681B6B9A1CFB681A63D2
:10335C00FB68DB8E9BB2013B9AB2FB68DA862FE0EE
:10336C00FB681B689B6803F00203022B12D1FB68FD
:10337C001B6B1A88FB681B68DA60FB681B6B9A1C5A
:10338C00FB681A63FB68DB8E9BB2013B9AB2FB684D
:10339C00DA8615E000F096FE0246BB69D31A3A684D
:1033AC009A4203D83B68B3F1FF3F02D13B68002B34
:1033BC0006D10323FB77FB68012283F851207BE0C5
:1033CC00FB68DB8E9BB2002BCAD150E0FB685B68BC
:1033DC00002B02D0FB8A012B44D1FB681A6BFB68D3
:1033EC001B680C3312781A70FB681B6B5A1CFB6839
:1033FC001A63FB68DB8E9BB2013B9AB2FB68DA86E0
:10340C0030E0FB681B689B6803F00203022B13D1AE
:10341C00FB681A6BFB681B680C3312781A70FB681C
:10342C001B6B5A1CFB681A63FB68DB8E9BB2013B5F
:10343C009AB2FB68DA8615E000F044FE0246BB69DE
:10344C00D31A3A689A4203D83B68B3F1FF3F02D1D2
:10345C003B68002B06D10323FB77FB68012283F822
:10346C00512029E0FB68DB8E9BB2002BC9D1BA69D5
:10347C003968F86800F0B2F80346002B02D0FB68FC
:10348C0020225A65FB689B68002B0AD100233B6104
:10349C00FB681B68DB683B61FB681B689B683B61D6
:1034AC003B69FB685B6D002B02D00123FB7703E0CB
:1034BC00FB68012283F85120FB68002283F850201E
:1034CC00FB7F18462037BD4680BD000080B588B014
:1034DC0000AFF860B9603B601346FB7100F0F2FD81
:1034EC000246BB6A9B1A3A681344FB6100F0EAFD82
:1034FC00B861394B1B685B011B0DFA6902FB03F3C6
:10350C007B6154E03B68B3F1FF3F50D000F0DAFD33
:10351C000246BB69D31AFA699A4202D9FB69002B9D
:10352C003DD1FB681B685A68FB681B6822F0E002FF
:10353C005A60FB685B68B3F5827F11D1FB689B68AE
:10354C00B3F5004F04D0FB689B68B3F5806F07D1CF
:10355C00FB681B681A68FB681B6822F040021A6043
:10356C00FB689B6AB3F5005F0FD1FB681B681A6898
:10357C00FB681B6822F400521A60FB681B681A680F
:10358C00FB681B6842F400521A60FB68012283F846
:10359C005120FB68002283F85020032317E07B693D
:1035AC00002B01D10023FB617B69013B7B61FB6834
:1035BC001B689A68BB681340BA689A420CBF012317
:1035CC000023DBB21A46FB799A429BD100231846A2
:1035DC002037BD4680BD00BF0000002080B586B0FE
:1035EC0002AFF860B9607A607B680093BB68002218
:1035FC008021F868FFF76AFF0346002B07D0FB68B1
:10360C005B6D43F02002FB685A65032300E0002346
:10361C0018461037BD4680BD80B485B000AF7860C9
:10362C0039607B6893F83C30012B01D1022346E0D2
:10363C007B68012283F83C207B68022283F83D20C2
:10364C007B681B685B68FB607B681B689B68BB6066
:10365C00FB6823F07003FB603B681B68FA6813433C
:10366C00FB607B681B68FA685A607B681B68164AAB
:10367C0093420ED07B681B68B3F1804F09D07B68F6
:10368C001B68124A934204D07B681B68104A934211
:10369C000CD1BB6823F08003BB603B685B68BA68E5
:1036AC001343BB607B681B68BA689A607B68012215
:1036BC0083F83D207B68002283F83C2000231846C9
:1036CC001437BD4680BC7047002C014000040040FC
:1036DC000008004080B582B000AF78607B68002B9A
:1036EC0001D1012341E07B6893F83D30DBB2002B24
:1036FC0006D17B68002283F83C207868FEF7A8FD91
:10370C007B68022283F83D207B681A687B6804334F
:10371C001946104600F092F97B68012283F8462086
:10372C007B68012283F83E207B68012283F83F20CE
:10373C007B68012283F840207B68012283F84120BA
:10374C007B68012283F842207B68012283F84320A6
:10375C007B68012283F844207B68012283F8452092
:10376C007B68012283F83D20002318460837BD46AC
:10377C0080BD000080B584B000AF786039603B68D4
:10378C00002B09D17B6893F83E30DBB2012B14BFC0
:10379C0001230023DBB222E03B68042B09D17B68B8
:1037AC0093F83F30DBB2012B14BF01230023DBB2B3
:1037BC0015E03B68082B09D17B6893F84030DBB2ED
:1037CC00012B14BF01230023DBB208E07B6893F8C4
:1037DC004130DBB2012B14BF01230023DBB2002BE1
:1037EC0001D001235EE03B68002B04D17B680222F0
:1037FC0083F83E2013E03B68042B04D17B68022243
:10380C0083F83F200BE03B68082B04D17B68022235
:10381C0083F8402003E07B68022283F841207B6818
:10382C001B6801223968184600F0F2FA7B681B68A5
:10383C001E4A934207D17B681B685A6C7B681B68D5
:10384C0042F400425A647B681B68184A93420ED0BB
:10385C007B681B68B3F1804F09D07B681B68144AE6
:10386C00934204D07B681B68124A934211D17B6847
:10387C001B689B6803F00703FB60FB68062B10D0EA
:10388C007B681B681A687B681B6842F001021A602F
:10389C0007E07B681B681A687B681B6842F00102B2
:1038AC001A60002318461037BD4680BD002C01401D
:1038BC00000400400008004080B586B000AFF860FE
:1038CC00B9607A600023FB75FB6893F83C30012BE0
:1038DC0001D10223AEE0FB68012283F83C207B6817
:1038EC000C2B00F29F8001A252F823F02D39000816
:1038FC00313A0008313A0008313A00086D390008B5
:10390C00313A0008313A0008313A0008AF39000862
:10391C00313A0008313A0008313A0008EF39000812
:10392C00FB681B68B968184600F0EAF8FB681B686E
:10393C009A69FB681B6842F008029A61FB681B6875
:10394C009A69FB681B6822F004029A61FB681B6889
:10395C009969BB681A69FB681B680A439A6164E041
:10396C00FB681B68B968184600F030F9FB681B68E7
:10397C009A69FB681B6842F400629A61FB681B68D9
:10398C009A69FB681B6822F480629A61FB681B6869
:10399C009969BB681B691A02FB681B680A439A6128
:1039AC0043E0FB681B68B968184600F079F9FB68BE
:1039BC001B68DA69FB681B6842F00802DA61FB6875
:1039CC001B68DA69FB681B6822F00402DA61FB6889
:1039DC001B68D969BB681A69FB681B680A43DA6102
:1039EC0023E0FB681B68B968184600F0C3F9FB6854
:1039FC001B68DA69FB681B6842F40062DA61FB68D9
:103A0C001B68DA69FB681B6822F48062DA61FB6868
:103A1C001B68D969BB681B691A02FB681B680A43DF
:103A2C00DA6102E00123FB7500BFFB68002283F81A
:103A3C003C20FB7D18461837BD4680BD80B485B050
:103A4C0000AF786039607B681B68FB607B68294A33
:103A5C0093420BD07B68B3F1804F07D07B68264A2A
:103A6C00934203D07B68254A934208D1FB6823F02C
:103A7C007003FB603B685B68FA681343FB607B6810
:103A8C001C4A93420BD07B68B3F1804F07D07B6804
:103A9C00194A934203D07B68184A934208D1FB68B9
:103AAC0023F44073FB603B68DB68FA681343FB60EC
:103ABC00FB6823F080023B685B691343FB607B6807
:103ACC00FA681A603B689A687B68DA623B681A6825
:103ADC007B689A627B68074A934203D13B681A69F8
:103AEC007B681A637B6801225A6100BF1437BD469C
:103AFC0080BC7047002C01400004004000080040CE
:103B0C0080B487B000AF786039607B681B6A7B61DA
:103B1C007B681B6A23F001027B681A627B685B6816
:103B2C003B617B689B69FB60FB6823F07003FB6067
:103B3C00FB6823F00303FB603B681B68FA681343C4
:103B4C00FB607B6923F002037B613B689B687A69AD
:103B5C0013437B617B681C4A93420CD17B6923F035
:103B6C0008037B613B68DB687A6913437B617B6983
:103B7C0023F004037B617B68134A934211D13B69A8
:103B8C0023F480733B613B6923F400733B613B6816
:103B9C005B693A6913433B613B689B693A69134320
:103BAC003B617B683A695A607B68FA689A613B684A
:103BBC005A687B685A637B687A691A6200BF1C3743
:103BCC00BD4680BC704700BF002C014080B487B05C
:103BDC0000AF786039607B681B6A7B617B681B6A0D
:103BEC0023F010027B681A627B685B683B617B6820
:103BFC009B69FB60FB6823F4E043FB60FB6823F4E8
:103C0C004073FB603B681B681B02FA681343FB6044
:103C1C007B6923F020037B613B689B681B017A69FD
:103C2C0013437B617B681D4A93420DD17B6923F062
:103C3C0080037B613B68DB681B017A6913437B6102
:103C4C007B6923F040037B617B68144A934213D158
:103C5C003B6923F480633B613B6923F400633B6164
:103C6C003B685B699B003A6913433B613B689B690A
:103C7C009B003A6913433B617B683A695A607B68E5
:103C8C00FA689A613B685A687B689A637B687A69C0
:103C9C001A6200BF1C37BD4680BC7047002C014027
:103CAC0080B487B000AF786039607B681B6A7B6139
:103CBC007B681B6A23F480727B681A627B685B6882
:103CCC003B617B68DB69FB60FB6823F07003FB6086
:103CDC00FB6823F00303FB603B681B68FA68134323
:103CEC00FB607B6923F400737B613B689B681B0260
:103CFC007A6913437B617B681D4A93420DD17B69C2
:103D0C0023F400637B613B68DB681B027A69134315
:103D1C007B617B6923F480637B617B68144A9342EB
:103D2C0013D13B6923F480533B613B6923F400536B
:103D3C003B613B685B691B013A6913433B613B6820
:103D4C009B691B013A6913433B617B683A695A6072
:103D5C007B68FA68DA613B685A687B68DA637B686F
:103D6C007A691A6200BF1C37BD4680BC704700BF21
:103D7C00002C014080B487B000AF786039607B685C
:103D8C001B6A3B617B681B6A23F480527B681A6256
:103D9C007B685B687B617B68DB69FB60FB6823F499
:103DAC00E043FB60FB6823F44073FB603B681B68DB
:103DBC001B02FA681343FB603B6923F400533B611D
:103DCC003B689B681B033A6913433B617B680F4A52
:103DDC00934209D17B6923F480437B613B685B6927
:103DEC009B017A6913437B617B687A695A607B68B3
:103DFC00FA68DA613B685A687B681A647B683A69CE
:103E0C001A6200BF1C37BD4680BC7047002C0140B5
:103E1C0080B487B000AFF860B9607A60BB6803F01B
:103E2C001F03012202FA03F37B61FB681A6A7B69A8
:103E3C00DB431A40FB681A62FB681A6ABB6803F022
:103E4C001F03796801FA03F31A43FB681A6200BF77
:103E5C001C37BD4680BC704780B582B000AF78601F
:103E6C007B68002B01D1012342E07B6893F8413041
:103E7C00DBB2002B06D17B68002283F840207868E7
:103E8C00FEF75CFA7B68242283F841207B681B6870
:103E9C00DA687B681B6822F40052DA60786800F0FC
:103EAC002BF87B681B681A697B681B6822F49042AC
:103EBC001A617B681B685A697B681B6822F02A02AE
:103ECC005A617B681B68DA687B681B6842F4005295
:103EDC00DA607B6800225A647B68202283F84120D8
:103EEC007B68202283F842207B6800225A630023DF
:103EFC0018460837BD4680BD80B584B000AF7860E9
:103F0C007B681B681B6923F440517B68DA687B680B
:103F1C001B680A431A617B689A687B681B691A43A1
:103F2C007B685B691343BB607B681B68DB6823F4AD
:103F3C00B05323F00C037A681268B9680B43D36052
:103F4C007B681B685B6923F440717B689A697B68AA
:103F5C001B680A435A617B681B682C4A934203D145
:103F6C00FFF7BAF8F86002E0FFF7A2F8F860FA6819
:103F7C0013469B0013449A001A447B685B689B00B1
:103F8C00B2FBF3F3224AA2FB03235B091901FA6883
:103F9C0013469B0013449A001A447B685B689B0091
:103FAC00B2FBF3F21A4BA3FB02035B09642000FB88
:103FBC0003F3D31A1B013233154AA2FB03235B090B
:103FCC0003F0F0031944FA6813469B0013449A005B
:103FDC001A447B685B689B00B2FBF3F20C4BA3FBAF
:103FEC0002035B09642000FB03F3D31A1B01323379
:103FFC00074AA2FB03235B0903F00F027B681B68D3
:10400C000A449A6000BF1037BD4680BD003801409D
:10401C001F85EB5180B500AF084B1B68074A43F076
:10402C00100313600320FEF7A9FA0F2000F008F824
:10403C00FDF7B6FF0023184680BD00BF00200240EC
:10404C0080B582B000AF7860124B1A68124B1B78A7
:10405C0019464FF47A73B3FBF1F3B2FBF3F3184642
:10406C00FEF7B3FA0346002B01D001230EE07B6868
:10407C000F2B0AD8002279684FF0FF30FEF789FA2F
:10408C00064A7B681360002300E0012318460837BA
:10409C00BD4680BD00000020080000200400002068
:1040AC0080B400AF054B1B781A46054B1B681344B4
:1040BC00034A136000BFBD4680BC70470800002057
:1040CC00A801002080B400AF024B1B681846BD4607
:1040DC0080BC7047A801002080B584B000AF786028
:1040EC00FFF7F0FFB8607B68FB60FB68B3F1FF3F44
:1040FC0005D00A4B1B781A46FB681344FB6000BFC3
:10410C00FFF7E0FF0246BB68D31AFA689A42F7D869
:10411C0000BF00BF1037BD4680BD00BF08000020A7
:10412C0070B50E4E0C463168054611B900F0E8FA30
:10413C0030602146284600F0E3FA431C0AD0C41C28
:10414C0024F00304A04207D0211A284600F0D8FA24
:10415C00013001D14FF0FF34204670BDB00100207A
:10416C002DE9F843CD1C25F0030508350C2D38BF7F
:10417C000C25002D074601DBA94205D90C2300268E
:10418C003B603046BDE8F883DFF8D08000F068F87B
:10419C00D8F800301C465CBB29463846FFF7C0FFF8
:1041AC00431C044655D1D8F800402646002E45D174
:1041BC00002C48D023683146384604EB030900F044
:1041CC009FFA81453FD1216838466D1A2946FFF781
:1041DC00A7FF013037D023682B442360D8F8003078
:1041EC00002B38D05A68A2422BD100225A600FE023
:1041FC002268521B1FD40B2A17D96119A3422560C0
:10420C0018BF5960636808BFC8F8001062514B6052
:10421C00384604F10B0600F029F826F00706231D9A
:10422C00F21AAED09B1BA350ABE7A3426268DDD160
:10423C00C8F80020ECE723466468ACE7344676689F
:10424C00B4E71346CCE70C2338463B6000F00EF87D
:10425C0097E72560DCE75B60FFDE00BFAC01002068
:10426C00014800F09ABA00BFF4020020014800F0A7
:10427C0095BA00BFF4020020002310B50446C0E933
:10428C000033C0E90433836081814366C28183615A
:10429C00194608225C3000F0F7F90D4B246263627A
:1042AC000C4BA3620C4BE3620C4B23630C4B9C42F8
:1042BC0006D003F16802944202D0D0339C4205D15F
:1042CC0004F15800BDE8104000F066BA10BD00BF04
:1042DC00E5440008074500083F4500086345000811
:1042EC00B4010020024A0349034800F069B800BF3A
:1042FC000C000020ED4E00081800002041680C4B0B
:10430C0010B59942044601D000F0EAFDA168094BB2
:10431C00994202D0204600F0E3FDE168064B994239
:10432C0004D02046BDE8104000F0DABD10BD00BF3F
:10433C00B40100201C0200208402002010B50B4B9D
:10434C000B4C0C4A20461A6004210022FFF794FF04
:10435C0004F1680001220921FFF78EFF04F1D0005F
:10436C000222BDE810401221FFF786BFEC020020AC
:10437C00B4010020F1420008014800F00EBA00BF61
:10438C00F5020020014800F009BA00BFF502002038
:10439C0010B50446FFF7F0FF236A1BB1BDE81040CF
:1043AC00FFF7F0BF044B2362044B1B68002BF5D1C5
:1043BC00FFF7C4FFF2E700BF09430008EC0200203E
:1043CC002DE9F8430746884614460026D4E90195A2
:1043DC00B9F1010905D52468002CF7D13046BDE8A8
:1043EC00F883AB89012B07D9B5F90E30013303D013
:1043FC0029463846C04706436835E9E70FB407B588
:10440C00064904AB086853F8042B8168019300F04B
:10441C0037FA03B05DF804EB04B070476400002079
:10442C00036A70B505460E4684680BB9FFF7B0FFFA
:10443C00636EDB0705D4A389980502D4A06D00F048
:10444C00ACF9A389190713D523698BB1013EA36875
:10445C0016F8011F013BA360E9B9002B2EDA2246A6
:10446C000A21284600F07BF8013007D00A2507E026
:10447C002146284600F0B0F80028E7D04FF0FF3571
:10448C00636EDA0705D4A3899B0502D4A06D00F0F6
:10449C0085F9284670BD002B04DAA2699A4206DC25
:1044AC000A2904D023685A1C22601970CFE72246CF
:1044BC00284600F054F80130C9D1DFE70A252368FB
:1044CC005A1C22601D70DBE7024B01461868FFF78F
:1044DC00A7BF00BF6400002010B50C46B1F90E1048
:1044EC0000F0FCF80028ABBF636DA3891B1823F404
:1044FC008053ACBF6365A38110BD2DE9F0411F460D
:10450C008B890546DB050C46164605D50223002291
:10451C00B1F90E1000F0D0F8A389324623F4805381
:10452C00A38128463B46B4F90E10BDE8F04100F0DB
:10453C00F7B810B50C46B1F90E1000F0BDF8431CDD
:10454C00A38915BF606523F4805343F48053A38182
:10455C0018BFA38110BDB1F90E1000F09DB8F8B5CD
:10456C000E461446054618B1036A0BB9FFF710FF47
:10457C00A369A360A3891A0725D523691BB32368F4
:10458C002269F6B2981A63693746834204DC2146E5
:10459C00284600F0A5FCE0B9A368013BA3602368A2
:1045AC005A1C22601E706269431C9A4204D0A38973
:1045BC00DB0706D50A2E04D12146284600F090FCD4
:1045CC0038B93846F8BD2146284600F005F80028D1
:1045DC00D5D04FF0FF37F4E738B52A4B05461868AD
:1045EC000C4618B1036A0BB9FFF7D2FEA389B4F9D4
:1045FC000C20180722D4D90607D409232B6042F0CB
:10460C0040034FF0FF30A38134E0580712D5616BA3
:10461C0041B104F14403994202D0284600F0C0F89D
:10462C0000236363A38923F02403A3810023636025
:10463C0023692360A38943F00803A38123694BB941
:10464C00A38903F42073B3F5007F03D021462846D9
:10465C0000F093FCA089B4F90C2010F001030AD0EF
:10466C000023A36063695B42A361236943B910F023
:10467C008000C4D138BD810758BF6369A360F4E7DB
:10468C000020F7E76400002003460244934200D167
:10469C00704703F8011BF9E738B50023054D0446B4
:1046AC0008462B60FDF70EFD431C02D12B6803B1AD
:1046BC00236038BDF002002038B504460846114688
:1046CC000022054D2A601A46FDF720FD431C02D13D
:1046DC002B6803B1236038BDF002002038B50446C6
:1046EC00084611460022054D2A601A46FDF7B1FC1A
:1046FC00431C02D12B6803B1236038BDF0020020AB
:10470C0038B50023054D044608462B60FDF70AFD1D
:10471C00431C02D12B6803B1236038BDF00200208A
:10472C0038B50446084611460022054D2A601A4643
:10473C00FDF7ACFC431C02D12B6803B1236038BDE0
:10474C00F0020020014B1868704700BF6400002085
:10475C0070B500260C4D0D4C641BA410A64209D15B
:10476C0000F074FD00260A4D0A4C641BA410A642EE
:10477C0005D170BD55F8043B98470136EEE755F866
:10478C00043B98470136F2E7605600086056000873
:10479C006056000864560008704770477047000068
:1047AC0038B50546002940D051F8043C0C1F002BAD
:1047BC00B8BFE418FFF754FD1C4A136833B96360A3
:1047CC0014602846BDE83840FFF750BDA34208D915
:1047DC00206821188B4201BF19685B680918216099
:1047EC00EDE71A465B680BB1A342FAD91168501871
:1047FC00A0420BD120680144501883421160E0D1D3
:10480C0018685B68084410605360DAE702D90C231F
:10481C002B60D6E7206821188B4201BF19685B68B2
:10482C000918216063605460CBE738BDAC010020EF
:10483C00936810B4013B002B936007DA9469A34290
:10484C0001DB0A2902D110BCFFF789BE1368581C82
:10485C0010601970084610BC7047F8B506460F4634
:10486C001446D518AC4201D1002007E03A46304638
:10487C0014F8011BFFF7DCFF431CF3D1F8BD00005B
:10488C002DE9F04F0D461446984606469DB018B1DA
:10489C00036A0BB9FFF77CFD6B6ED90705D4AB89A6
:1048AC009A0502D4A86DFFF778FFAB891B0701D5D9
:1048BC002B699BB929463046FFF78EFE70B16B6EA3
:1048CC00DC0704D54FF0FF301DB0BDE8F08FAB898D
:1048DC009805F7D4A86DFFF761FFF3E70023099360
:1048EC0020238DF8293030234FF00109CDF80C80AE
:1048FC00DFF8AC818DF82A3023469A4613F8012B49
:10490C000AB1252AF9D1BAEB040B0BD05B4622462F
:10491C0029463046FFF7A1FF013000F0A980099A23
:10492C005A4409929AF80030002B00F0A180002321
:10493C004FF0FF32CDE905230AF1010A04930793E6
:10494C008DF853301A935446052214F8011B544821
:10495C0000F072FB049AD8B9D10644BF20238DF81D
:10496C005330130744BF2B238DF853309AF8003083
:10497C002A2B15D0544600204FF00A0C079A2146DA
:10498C0011F8013B303B092B4DD9B0B1079214E023
:10499C00A0EB080309FA03F31343A2460493D2E7EE
:1049AC00039B191D1B680391002BBBBF5B4242F09C
:1049BC00020207930793B8BF049223782E2B0CD1D5
:1049CC0063782A2B34D1039B02341A1D1B68039283
:1049DC00002BB8BF4FF0FF330593DFF8C8A00322BC
:1049EC005046217800F028FB38B14022049BA0EB04
:1049FC000A00824013430134049314F8011B06226D
:104A0C0029488DF8281000F017FB00283FD0274BC1
:104A1C001BBB039B073323F0070308330393099B4A
:104A2C003B44099368E70C4601200CFB0232A6E7D5
:104A3C0000234FF00A0C194601340593204610F858
:104A4C00012B303A092A03D9002BC6D00591C4E7B3
:104A5C00044601230CFB0121F0E703AB00932A462B
:104A6C003046134B04A9AFF300800746781CD6D10F
:104A7C006B6ED90705D4AB899A0502D4A86DFFF7E4
:104A8C008DFEAB895B063FF51DAF09981CE703ABA8
:104A9C0000932A463046064B04A900F07DF8E4E763
:104AAC002A56000830560008345600080000000052
:104ABC00674800082DE9F047164699468A680B6945
:104ACC0007469342B8BF1346336091F843200C4617
:104ADC00DDF820800AB1013333602368990642BFA8
:104AEC00336802333360256815F0060506D104F1EE
:104AFC00190AE36832689B1AAB422BDC94F843200A
:104B0C00131E226818BF0123920630D4494638463A
:104B1C0004F14302C047013023D02368226903F01B
:104B2C000603042B14BF002533684FF0000608BFA2
:104B3C00E56804F11A0408BFED1A54F8123C08BFDA
:104B4C0025EAE5759342C4BF9B1AED18B5421AD1FC
:104B5C00002008E00123524649463846C047013040
:104B6C0003D14FF0FF30BDE8F0870135C1E73020AD
:104B7C00E11881F843005A1C94F845102244023382
:104B8C0082F84310C2E70123224649463846C04703
:104B9C000130E6D00136D9E72DE9FF470F7E91466B
:104BAC00782F80460C469A460C9D01F1430207D89B
:104BBC00622F0AD8002F00F0D580582F00F0C1804A
:104BCC0004F1420584F842703AE0A7F16303152B17
:104BDC00F6D801A151F823F03D4C0008514C0008C7
:104BEC00CD4B0008CD4B0008CD4B0008CD4B000839
:104BFC00514C0008CD4B0008CD4B0008CD4B0008A4
:104C0C00CD4B0008574D00087D4C0008114D000895
:104C1C00CD4B0008CD4B0008794D0008CD4B00085A
:104C2C007D4C0008CD4B0008CD4B0008194D0008F9
:104C3C002B681A1D1B682A6004F1420584F8423067
:104C4C000123A0E020682B68070603F1040129600A
:104C5C0001D51E6803E04606FBD5B3F90060002EB3
:104C6C0003DA2D23764284F843300A23594812E0A4
:104C7C002B682068191D2960050601D51E6802E005
:104C8C004106FBD51E886F2F0CBF08230A23514801
:104C9C00002184F843106568002DA8BF2168A56029
:104CAC00A4BF21F0040121600EB9002D4BD0154694
:104CBC00B6FBF3F103FB1167C75D05F8017D3746C1
:104CCC00BB420E46F4D9082B0BD12368DE0708D55E
:104CDC00236961689942DEBF302305F8013C05F178
:104CEC00FF35521B22614B4621464046CDF800A0B1
:104CFC0003AAFFF7DFFE01304AD14FF0FF3004B0BA
:104D0C00BDE8F087236843F02003236078273248FE
:104D1C0084F84570236829681F0651F8046B02D487
:104D2C005F0648BFB6B2DF0748BF43F020032960D7
:104D3C0048BF23601EB9236823F02003236010238F
:104D4C00A6E72448E4E71546BDE72B682668181D3E
:104D5C006169286035061B6801D5196002E0700690
:104D6C00FBD51980002315462361BCE72B68002175
:104D7C001A1D2A601D686268284600F05DF908B1AA
:104D8C00401B606063682361002384F84330AAE70A
:104D9C002A46494640462369D0470130ADD02368A6
:104DAC009B0713D4E068039B9842B8BF1846A6E74C
:104DBC000123324649464046D04701309DD001354B
:104DCC00E36803995B1AAB42F2DCEBE7002504F1D4
:104DDC001906F5E73B5600084C5600088A89F8B5C9
:104DEC00054610070C4657D44B68002B04DC0B6CA3
:104DFC00002B01DC0020F8BDE66A002EFAD000235F
:104E0C0012F480522F68216A2B6032D0606DA38916
:104E1C005A0705D56368C01A636B0BB1236CC01AB3
:104E2C0000230246E66A2846216AB047431CA38940
:104E3C0006D129681D292BD8284A0A41D60727D420
:104E4C00002262602269D904226004D5421C01D17F
:104E5C002B6803B96065616B2F600029CAD004F11F
:104E6C004403994202D02846FFF79AFC0020606365
:104E7C00C1E701232846B047411CC8D12B68002B41
:104E8C00C5D01D2B01D0162B01D12F60B2E7A38901
:104E9C0043F04003A381AEE70F69002FAAD093071C
:104EAC0018BF00230E6808BF4B69F61B0F608B60A0
:104EBC00002E9FDD33463A462846216AD4F828C096
:104ECC00E047002806DCA3894FF0FF3043F0400395
:104EDC00A38190E70744361AEAE700BFFEFFBFDF65
:104EEC0038B50B6905460C4613B90025284638BD64
:104EFC0018B1036A0BB9FFF74BFAB4F90C30002B5D
:104F0C00F3D0626ED00704D4990502D4A06DFFF7DC
:104F1C0044FC28462146FFF761FF636E0546DA071D
:104F2C00E4D4A3899B05E1D4A06DFFF737FCDDE742
:104F3C0070B50C46B1F90E10154600291E4696B0F8
:104F4C000CDAA389002113F0800F0CBF4FF480639F
:104F5C004023002031602B6016B070BD6A4600F013
:104F6C0049F80028EDDB019901F47041A1F50053DB
:104F7C00594259414FF48063EBE78B8973B59D0718
:104F8C0006460C4607D504F1470323602361012331
:104F9C00636102B070BD6A4601ABFFF7C9FF0099AF
:104FAC0005463046FFF7DCF848B9B4F90C309A05E1
:104FBC00EFD423F0030343F00203A381E3E7A389B7
:104FCC00206043F08003A381009B20616361019BFF
:104FDC005BB13046B4F90E1000F01EF828B1A3896D
:104FEC0023F0030343F00103A381A3891D43A5818F
:104FFC00CFE7000038B50023064D0446084611469D
:10500C002B60FDF76AF8431C02D12B6803B12360B7
:10501C0038BD00BFF002002038B50023054D044612
:10502C0008462B60FDF768F8431C02D12B6803B1CE
:10503C00236038BDF0020020034610B5C9B202440B
:10504C009342184601D1002003E0047801338C42CE
:10505C00F6D110BDF8B506460F4600F01FF83246E3
:10506C0004460D463B4630463946FBF745FF90B9A2
:10507C000022002330463946FBF716FF58B1FFF7E4
:10508C0061FB212300220360002310461946FBF725
:10509C00C3FD04460D4620462946F8BDDFF8A0C1E5
:1050AC002DE9F84F3CEA010C0B4606460D460A4624
:1050BC0004460ED10246FBF785FC02460B463046F1
:1050CC002946FBF743F806460D4630462946BDE80F
:1050DC00F88F00290DDC21F0004C5CEA000CF4D0B8
:1050EC0039B10246FBF730F802460B46FBF794FD4C
:1050FC00E9E7121500F089800025C3F31303A2F22F
:10510C00FF3643F48013D2075CBF5B0003EBD47310
:10511C004FEA430358BF640003EBD47362001620BC
:10512C0029464FF4001476100F199F42DEBFDB1B8B
:10513C0039192D195B00013803EBD2734FEA540473
:10514C004FEA4202F0D1044620274FF0004C8B422C
:10515C000CEB000E02DC13D1964511D8BEF1000FFA
:10516C000EEB0C0056DA002854DB01F101085B1A37
:10517C004146964588BF03F1FF33A2EB0E0264440F
:10518C005B00013F03EBD2734FEA5C0C4FEA420227
:10519C00DDD113431BD0DFF8ACA0DFF8ACB0DAE9FB
:1051AC000001DBE90023FAF7CFFFDAE900890246B8
:1051BC000B4640464946FBF781FE40B1DAE9000157
:1051CC00DBE90023B4F1FF3F26D13C4601356B10DF
:1051DC00640803F17F53EA0703F5001348BF44F05A
:1051EC000044204603EB06516DE7E30A15396405CC
:1051FC00002BFAD0D8020AD5C2F1200024FA00F014
:10520C00551E944003434A1B76E71146F0E75B00BA
:10521C000132EFE78846AAE7FAF798FFDAE9008946
:10522C0002460B4640464946FBF73EFE20B1A11C08
:10523C0008BF01350234CAE7013424F00104C6E783
:10524C000000F07F6800002070000020F8B500BF5F
:10525C00F8BC08BC9E467047F8B500BFF8BC08BC4B
:04526C009E467047A3
:105270004C43445F31494E32385F74657374204447
:10528000656D6F0D000000004C43445F31494E32A4
:10529000385F20496E697420616E6420436C6561DB
:1052A000722E2E2E0D0000005061696E745F4E65E7
:1052B00077496D6167650D0053657420436C6561C6
:1052C0007220616E6420446973706C617920467548
:1052D0006E74696F6E0D00005061696E745F436C8F
:1052E0006561720D00000000446973706C61792083
:1052F0007465737420636F6D706C6574650D000068
:10530000717569742E2E2E0D0000000057696474AB
:105310006842797465203D2025642C2048656967C2
:10532000687442797465203D2025640D0A000000F0
:105330004465627567203A2053657420696D616722
:105340006520526F746174652025640D0A000000A9
:105350004465627567203A20726F74617465203D00
:1053600020302C2039302C203138302C203237306E
:105370000D0000006D6972726F7200006E6F6E65D5
:10538000000000004465627567203A206D69727202
:105390006F7220696D61676520783A25732C2079DA
:1053A0003A25730D0A0000004465627567203A20B3
:1053B0006D6972726F722073686F756C64206265BC
:1053C000204D4952524F525F4E4F4E452C204D4971
:1053D00052524F525F484F52495A4F4E54414C2CF3
:1053E0002020202020202020204D4952524F525F63
:1053F000564552544943414C206F72204D495252F8
:105400004F525F4F524947494E0D00004465627547
:1054100067203A20457863656564696E6720646932
:1054200073706C617920626F756E64617269657307
:105430000D0000004465627567203A205061696E76
:10544000745F44726177506F696E7420496E707535
:1054500074206578636565647320746865206E6F79
:10546000726D616C20646973706C61792072616E19
:1054700067650D004465627567203A205061696E6A
:10548000745F447261774C696E6520496E70757403
:10549000206578636565647320746865206E6F723B
:1054A0006D616C20646973706C61792072616E67E4
:1054B000650D00004465627567203A20496E70757D
:1054C00074206578636565647320746865206E6F09
:1054D000726D616C20646973706C61792072616EA9
:1054E00067650D004465627567203A205061696EFA
:1054F000745F44726177436972636C6520496E70B2
:105500007574206578636565647320746865206EC2
:105510006F726D616C20646973706C617920726167
:105520006E67650D000000004465627567203A20D3
:105530005061696E745F447261774368617220499B
:105540006E70757420657863656564732074686532
:10555000206E6F726D616C20646973706C6179206C
:1055600072616E67650D00004465627567203A20C0
:105570005061696E745F44726177537472696E67CB
:105580005F454E20496E707574206578636565646B
:105590007320746865206E6F726D616C206469732E
:1055A000706C61792072616E67650D00446562758B
:1055B00067203A205061696E745F4469734E756D5F
:1055C00020496E7075742065786365656473207416
:1055D0006865206E6F726D616C20646973706C61B8
:1055E000792072616E67650D00000000252E2A6C1F
:1055F0006600000030313233343536373839000038
:105600000000000000000000010203040607080972
:105610000000000001020304020304050607080954
:105620000A0B0C0D0E0F10100102232D302B200041
:10563000686C4C006566674546470030313233344C
:1056400035363738394142434445460030313233EC
:1056500034353637383961626364656600000000AE
:04566000310100080C
:045664000D0100082C
:105668000024F40010000000010000000000000009
:1056780003000000B401002000000000B401002075
:105688001C0200208402002000000000000000002E
:105698000000000000000000000000000000000002
:1056A80000000000000000000000000000000000F2
:1056B80000000000000000000000000000000000E2
:1056C8000000000018000020000000000000F03F6B
:0856D80059F3F8C21F6EA50191
:04000005080023DDEF
:00000001FF
